{
  "_format": "hh-sol-artifact-1",
  "contractName": "ArticlePurchase",
  "sourceName": "contracts/ArticlePurchase.sol",
  "abi": [
    {
      "inputs": [
        {
          "internalType": "contract IERC20",
          "name": "_token",
          "type": "address"
        }
      ],
      "stateMutability": "nonpayable",
      "type": "constructor"
    },
    {
      "inputs": [
        {
          "internalType": "uint256",
          "name": "articleId",
          "type": "uint256"
        },
        {
          "internalType": "uint256",
          "name": "price",
          "type": "uint256"
        }
      ],
      "name": "buyArticle",
      "outputs": [],
      "stateMutability": "nonpayable",
      "type": "function"
    },
    {
      "inputs": [
        {
          "internalType": "uint256",
          "name": "articleId",
          "type": "uint256"
        }
      ],
      "name": "getArticleKey",
      "outputs": [
        {
          "internalType": "string",
          "name": "",
          "type": "string"
        }
      ],
      "stateMutability": "view",
      "type": "function"
    },
    {
      "inputs": [
        {
          "internalType": "address",
          "name": "",
          "type": "address"
        },
        {
          "internalType": "uint256",
          "name": "",
          "type": "uint256"
        }
      ],
      "name": "hasAccess",
      "outputs": [
        {
          "internalType": "bool",
          "name": "",
          "type": "bool"
        }
      ],
      "stateMutability": "view",
      "type": "function"
    },
    {
      "inputs": [],
      "name": "owner",
      "outputs": [
        {
          "internalType": "address",
          "name": "",
          "type": "address"
        }
      ],
      "stateMutability": "view",
      "type": "function"
    },
    {
      "inputs": [
        {
          "internalType": "uint256",
          "name": "articleId",
          "type": "uint256"
        },
        {
          "internalType": "string",
          "name": "encryptedKey",
          "type": "string"
        }
      ],
      "name": "setArticleKey",
      "outputs": [],
      "stateMutability": "nonpayable",
      "type": "function"
    },
    {
      "inputs": [],
      "name": "token",
      "outputs": [
        {
          "internalType": "contract IERC20",
          "name": "",
          "type": "address"
        }
      ],
      "stateMutability": "view",
      "type": "function"
    }
  ],
  "bytecode": "0x60806040523480156200001157600080fd5b5060405162000f5c38038062000f5c83398181016040528101906200003791906200013d565b806000806101000a81548173ffffffffffffffffffffffffffffffffffffffff021916908373ffffffffffffffffffffffffffffffffffffffff16021790555033600160006101000a81548173ffffffffffffffffffffffffffffffffffffffff021916908373ffffffffffffffffffffffffffffffffffffffff160217905550506200016f565b600080fd5b600073ffffffffffffffffffffffffffffffffffffffff82169050919050565b6000620000f182620000c4565b9050919050565b60006200010582620000e4565b9050919050565b6200011781620000f8565b81146200012357600080fd5b50565b60008151905062000137816200010c565b92915050565b600060208284031215620001565762000155620000bf565b5b6000620001668482850162000126565b91505092915050565b610ddd806200017f6000396000f3fe608060405234801561001057600080fd5b50600436106100625760003560e01c806336195dcb1461006757806344054938146100975780636aa5c352146100b35780638da5cb5b146100cf578063c6530e41146100ed578063fc0c546a1461011d575b600080fd5b610081600480360381019061007c919061055c565b61013b565b60405161008e9190610619565b60405180910390f35b6100b160048036038101906100ac91906106a0565b61027d565b005b6100cd60048036038101906100c89190610700565b610335565b005b6100d76104a3565b6040516100e49190610781565b60405180910390f35b610107600480360381019061010291906107c8565b6104c9565b6040516101149190610823565b60405180910390f35b6101256104f8565b604051610132919061089d565b60405180910390f35b6060600360003373ffffffffffffffffffffffffffffffffffffffff1673ffffffffffffffffffffffffffffffffffffffff168152602001908152602001600020600083815260200190815260200160002060009054906101000a900460ff166101da576040517f08c379a00000000000000000000000000000000000000000000000000000000081526004016101d190610904565b60405180910390fd5b6002600083815260200190815260200160002080546101f890610953565b80601f016020809104026020016040519081016040528092919081815260200182805461022490610953565b80156102715780601f1061024657610100808354040283529160200191610271565b820191906000526020600020905b81548152906001019060200180831161025457829003601f168201915b50505050509050919050565b600160009054906101000a900473ffffffffffffffffffffffffffffffffffffffff1673ffffffffffffffffffffffffffffffffffffffff163373ffffffffffffffffffffffffffffffffffffffff161461030d576040517f08c379a0000000000000000000000000000000000000000000000000000000008152600401610304906109d0565b60405180910390fd5b818160026000868152602001908152602001600020918261032f929190610bcc565b50505050565b60008054906101000a900473ffffffffffffffffffffffffffffffffffffffff1673ffffffffffffffffffffffffffffffffffffffff166323b872dd33600160009054906101000a900473ffffffffffffffffffffffffffffffffffffffff16846040518463ffffffff1660e01b81526004016103b493929190610cab565b6020604051808303816000875af11580156103d3573d6000803e3d6000fd5b505050506040513d601f19601f820116820180604052508101906103f79190610d0e565b610436576040517f08c379a000000000000000000000000000000000000000000000000000000000815260040161042d90610d87565b60405180910390fd5b6001600360003373ffffffffffffffffffffffffffffffffffffffff1673ffffffffffffffffffffffffffffffffffffffff168152602001908152602001600020600084815260200190815260200160002060006101000a81548160ff0219169083151502179055505050565b600160009054906101000a900473ffffffffffffffffffffffffffffffffffffffff1681565b60036020528160005260406000206020528060005260406000206000915091509054906101000a900460ff1681565b60008054906101000a900473ffffffffffffffffffffffffffffffffffffffff1681565b600080fd5b600080fd5b6000819050919050565b61053981610526565b811461054457600080fd5b50565b60008135905061055681610530565b92915050565b6000602082840312156105725761057161051c565b5b600061058084828501610547565b91505092915050565b600081519050919050565b600082825260208201905092915050565b60005b838110156105c35780820151818401526020810190506105a8565b60008484015250505050565b6000601f19601f8301169050919050565b60006105eb82610589565b6105f58185610594565b93506106058185602086016105a5565b61060e816105cf565b840191505092915050565b6000602082019050818103600083015261063381846105e0565b905092915050565b600080fd5b600080fd5b600080fd5b60008083601f8401126106605761065f61063b565b5b8235905067ffffffffffffffff81111561067d5761067c610640565b5b60208301915083600182028301111561069957610698610645565b5b9250929050565b6000806000604084860312156106b9576106b861051c565b5b60006106c786828701610547565b935050602084013567ffffffffffffffff8111156106e8576106e7610521565b5b6106f48682870161064a565b92509250509250925092565b600080604083850312156107175761071661051c565b5b600061072585828601610547565b925050602061073685828601610547565b9150509250929050565b600073ffffffffffffffffffffffffffffffffffffffff82169050919050565b600061076b82610740565b9050919050565b61077b81610760565b82525050565b60006020820190506107966000830184610772565b92915050565b6107a581610760565b81146107b057600080fd5b50565b6000813590506107c28161079c565b92915050565b600080604083850312156107df576107de61051c565b5b60006107ed858286016107b3565b92505060206107fe85828601610547565b9150509250929050565b60008115159050919050565b61081d81610808565b82525050565b60006020820190506108386000830184610814565b92915050565b6000819050919050565b600061086361085e61085984610740565b61083e565b610740565b9050919050565b600061087582610848565b9050919050565b60006108878261086a565b9050919050565b6108978161087c565b82525050565b60006020820190506108b2600083018461088e565b92915050565b7f6163636573732064656e69656400000000000000000000000000000000000000600082015250565b60006108ee600d83610594565b91506108f9826108b8565b602082019050919050565b6000602082019050818103600083015261091d816108e1565b9050919050565b7f4e487b7100000000000000000000000000000000000000000000000000000000600052602260045260246000fd5b6000600282049050600182168061096b57607f821691505b60208210810361097e5761097d610924565b5b50919050565b7f6f6e6c79206f776e657200000000000000000000000000000000000000000000600082015250565b60006109ba600a83610594565b91506109c582610984565b602082019050919050565b600060208201905081810360008301526109e9816109ad565b9050919050565b600082905092915050565b7f4e487b7100000000000000000000000000000000000000000000000000000000600052604160045260246000fd5b60008190508160005260206000209050919050565b60006020601f8301049050919050565b600082821b905092915050565b600060088302610a8c7fffffffffffffffffffffffffffffffffffffffffffffffffffffffffffffffff82610a4f565b610a968683610a4f565b95508019841693508086168417925050509392505050565b6000610ac9610ac4610abf84610526565b61083e565b610526565b9050919050565b6000819050919050565b610ae383610aae565b610af7610aef82610ad0565b848454610a5c565b825550505050565b600090565b610b0c610aff565b610b17818484610ada565b505050565b5b81811015610b3b57610b30600082610b04565b600181019050610b1d565b5050565b601f821115610b8057610b5181610a2a565b610b5a84610a3f565b81016020851015610b69578190505b610b7d610b7585610a3f565b830182610b1c565b50505b505050565b600082821c905092915050565b6000610ba360001984600802610b85565b1980831691505092915050565b6000610bbc8383610b92565b9150826002028217905092915050565b610bd683836109f0565b67ffffffffffffffff811115610bef57610bee6109fb565b5b610bf98254610953565b610c04828285610b3f565b6000601f831160018114610c335760008415610c21578287013590505b610c2b8582610bb0565b865550610c93565b601f198416610c4186610a2a565b60005b82811015610c6957848901358255600182019150602085019450602081019050610c44565b86831015610c865784890135610c82601f891682610b92565b8355505b6001600288020188555050505b50505050505050565b610ca581610526565b82525050565b6000606082019050610cc06000830186610772565b610ccd6020830185610772565b610cda6040830184610c9c565b949350505050565b610ceb81610808565b8114610cf657600080fd5b50565b600081519050610d0881610ce2565b92915050565b600060208284031215610d2457610d2361051c565b5b6000610d3284828501610cf9565b91505092915050565b7f7061796d656e74206661696c6564000000000000000000000000000000000000600082015250565b6000610d71600e83610594565b9150610d7c82610d3b565b602082019050919050565b60006020820190508181036000830152610da081610d64565b905091905056fea2646970667358221220412cfdd8ab7ee50f2ca96a9d3572c2a944feb44774de27f02f9b54e4b4f67b7064736f6c63430008140033",
  "linkReferences": {},
  "deployedLinkReferences": {}
}